{
  "_format": "hh-sol-artifact-1",
  "contractName": "IoTDataLogger",
  "sourceName": "contracts/IoTDataLogger.sol",
  "abi": [
    {
      "inputs": [],
      "stateMutability": "nonpayable",
      "type": "constructor"
    },
    {
      "anonymous": false,
      "inputs": [
        {
          "indexed": true,
          "internalType": "address",
          "name": "node",
          "type": "address"
        },
        {
          "indexed": false,
          "internalType": "string",
          "name": "nodeId",
          "type": "string"
        },
        {
          "indexed": false,
          "internalType": "uint256",
          "name": "timestamp",
          "type": "uint256"
        },
        {
          "indexed": false,
          "internalType": "string",
          "name": "dataType",
          "type": "string"
        },
        {
          "indexed": false,
          "internalType": "int256",
          "name": "value",
          "type": "int256"
        },
        {
          "indexed": false,
          "internalType": "string",
          "name": "protocol",
          "type": "string"
        }
      ],
      "name": "DataLogged",
      "type": "event"
    },
    {
      "anonymous": false,
      "inputs": [
        {
          "indexed": true,
          "internalType": "address",
          "name": "node",
          "type": "address"
        }
      ],
      "name": "NodeAuthorized",
      "type": "event"
    },
    {
      "inputs": [
        {
          "internalType": "address",
          "name": "_node",
          "type": "address"
        }
      ],
      "name": "addAuthorizedNode",
      "outputs": [],
      "stateMutability": "nonpayable",
      "type": "function"
    },
    {
      "inputs": [
        {
          "internalType": "address",
          "name": "",
          "type": "address"
        }
      ],
      "name": "authorizedNodes",
      "outputs": [
        {
          "internalType": "bool",
          "name": "",
          "type": "bool"
        }
      ],
      "stateMutability": "view",
      "type": "function"
    },
    {
      "inputs": [
        {
          "internalType": "uint256",
          "name": "",
          "type": "uint256"
        }
      ],
      "name": "dataLogs",
      "outputs": [
        {
          "internalType": "address",
          "name": "nodeAddress",
          "type": "address"
        },
        {
          "internalType": "string",
          "name": "nodeId",
          "type": "string"
        },
        {
          "internalType": "uint256",
          "name": "timestamp",
          "type": "uint256"
        },
        {
          "internalType": "string",
          "name": "dataType",
          "type": "string"
        },
        {
          "internalType": "int256",
          "name": "value",
          "type": "int256"
        },
        {
          "internalType": "string",
          "name": "protocol",
          "type": "string"
        }
      ],
      "stateMutability": "view",
      "type": "function"
    },
    {
      "inputs": [],
      "name": "getAllData",
      "outputs": [
        {
          "components": [
            {
              "internalType": "address",
              "name": "nodeAddress",
              "type": "address"
            },
            {
              "internalType": "string",
              "name": "nodeId",
              "type": "string"
            },
            {
              "internalType": "uint256",
              "name": "timestamp",
              "type": "uint256"
            },
            {
              "internalType": "string",
              "name": "dataType",
              "type": "string"
            },
            {
              "internalType": "int256",
              "name": "value",
              "type": "int256"
            },
            {
              "internalType": "string",
              "name": "protocol",
              "type": "string"
            }
          ],
          "internalType": "struct IoTDataLogger.SensorData[]",
          "name": "",
          "type": "tuple[]"
        }
      ],
      "stateMutability": "view",
      "type": "function"
    },
    {
      "inputs": [],
      "name": "getDataCount",
      "outputs": [
        {
          "internalType": "uint256",
          "name": "",
          "type": "uint256"
        }
      ],
      "stateMutability": "view",
      "type": "function"
    },
    {
      "inputs": [
        {
          "internalType": "uint256",
          "name": "_count",
          "type": "uint256"
        }
      ],
      "name": "getLatestData",
      "outputs": [
        {
          "components": [
            {
              "internalType": "address",
              "name": "nodeAddress",
              "type": "address"
            },
            {
              "internalType": "string",
              "name": "nodeId",
              "type": "string"
            },
            {
              "internalType": "uint256",
              "name": "timestamp",
              "type": "uint256"
            },
            {
              "internalType": "string",
              "name": "dataType",
              "type": "string"
            },
            {
              "internalType": "int256",
              "name": "value",
              "type": "int256"
            },
            {
              "internalType": "string",
              "name": "protocol",
              "type": "string"
            }
          ],
          "internalType": "struct IoTDataLogger.SensorData[]",
          "name": "",
          "type": "tuple[]"
        }
      ],
      "stateMutability": "view",
      "type": "function"
    },
    {
      "inputs": [
        {
          "internalType": "string",
          "name": "_nodeId",
          "type": "string"
        },
        {
          "internalType": "string",
          "name": "_dataType",
          "type": "string"
        },
        {
          "internalType": "int256",
          "name": "_value",
          "type": "int256"
        },
        {
          "internalType": "string",
          "name": "_protocol",
          "type": "string"
        }
      ],
      "name": "logData",
      "outputs": [],
      "stateMutability": "nonpayable",
      "type": "function"
    },
    {
      "inputs": [],
      "name": "owner",
      "outputs": [
        {
          "internalType": "address",
          "name": "",
          "type": "address"
        }
      ],
      "stateMutability": "view",
      "type": "function"
    }
  ],
  "bytecode": "0x6080604052348015600f57600080fd5b5033600260006101000a81548173ffffffffffffffffffffffffffffffffffffffff021916908373ffffffffffffffffffffffffffffffffffffffff16021790555060018060003373ffffffffffffffffffffffffffffffffffffffff1673ffffffffffffffffffffffffffffffffffffffff16815260200190815260200160002060006101000a81548160ff02191690831515021790555061194b806100b76000396000f3fe608060405234801561001057600080fd5b50600436106100885760003560e01c80637e53a7401161005b5780637e53a740146101015780638da5cb5b14610131578063b5abeebd1461014f578063b934d4da1461018457610088565b80631f82e56e1461008d5780632d10fa28146100a95780634a9df0db146100c75780637355a424146100e3575b600080fd5b6100a760048036038101906100a29190610dea565b6101b4565b005b6100b16102e1565b6040516100be9190611041565b60405180910390f35b6100e160048036038101906100dc91906111c4565b610560565b005b6100eb610755565b6040516100f8919061128e565b60405180910390f35b61011b60048036038101906101169190610dea565b610761565b60405161012891906112c4565b60405180910390f35b610139610781565b60405161014691906112ee565b60405180910390f35b61016960048036038101906101649190611335565b6107a7565b60405161017b969594939291906113bb565b60405180910390f35b61019e60048036038101906101999190611335565b6109ab565b6040516101ab9190611041565b60405180910390f35b600260009054906101000a900473ffffffffffffffffffffffffffffffffffffffff1673ffffffffffffffffffffffffffffffffffffffff163373ffffffffffffffffffffffffffffffffffffffff1614610244576040517f08c379a000000000000000000000000000000000000000000000000000000000815260040161023b9061147d565b60405180910390fd5b60018060008373ffffffffffffffffffffffffffffffffffffffff1673ffffffffffffffffffffffffffffffffffffffff16815260200190815260200160002060006101000a81548160ff0219169083151502179055508073ffffffffffffffffffffffffffffffffffffffff167f8638f01ed0471fe5cd807bb572bf42f715a4a2064a2c643b9d78bad2b95ec86f60405160405180910390a250565b60606000805480602002602001604051908101604052809291908181526020016000905b8282101561055757838290600052602060002090600602016040518060c00160405290816000820160009054906101000a900473ffffffffffffffffffffffffffffffffffffffff1673ffffffffffffffffffffffffffffffffffffffff1673ffffffffffffffffffffffffffffffffffffffff16815260200160018201805461038e906114cc565b80601f01602080910402602001604051908101604052809291908181526020018280546103ba906114cc565b80156104075780601f106103dc57610100808354040283529160200191610407565b820191906000526020600020905b8154815290600101906020018083116103ea57829003601f168201915b505050505081526020016002820154815260200160038201805461042a906114cc565b80601f0160208091040260200160405190810160405280929190818152602001828054610456906114cc565b80156104a35780601f10610478576101008083540402835291602001916104a3565b820191906000526020600020905b81548152906001019060200180831161048657829003601f168201915b50505050508152602001600482015481526020016005820180546104c6906114cc565b80601f01602080910402602001604051908101604052809291908181526020018280546104f2906114cc565b801561053f5780601f106105145761010080835404028352916020019161053f565b820191906000526020600020905b81548152906001019060200180831161052257829003601f168201915b50505050508152505081526020019060010190610305565b50505050905090565b600160003373ffffffffffffffffffffffffffffffffffffffff1673ffffffffffffffffffffffffffffffffffffffff16815260200190815260200160002060009054906101000a900460ff166105ec576040517f08c379a00000000000000000000000000000000000000000000000000000000081526004016105e390611549565b60405180910390fd5b60006040518060c001604052803373ffffffffffffffffffffffffffffffffffffffff16815260200186815260200142815260200185815260200184815260200183815250908060018154018082558091505060019003906000526020600020906006020160009091909190915060008201518160000160006101000a81548173ffffffffffffffffffffffffffffffffffffffff021916908373ffffffffffffffffffffffffffffffffffffffff16021790555060208201518160010190816106b69190611715565b506040820151816002015560608201518160030190816106d69190611715565b506080820151816004015560a08201518160050190816106f69190611715565b5050503373ffffffffffffffffffffffffffffffffffffffff167f1189d35562fb2359bcb942919a8d786aad67de9f424685dafb1f1732724be81785428686866040516107479594939291906117e7565b60405180910390a250505050565b60008080549050905090565b60016020528060005260406000206000915054906101000a900460ff1681565b600260009054906101000a900473ffffffffffffffffffffffffffffffffffffffff1681565b600081815481106107b757600080fd5b90600052602060002090600602016000915090508060000160009054906101000a900473ffffffffffffffffffffffffffffffffffffffff1690806001018054610800906114cc565b80601f016020809104026020016040519081016040528092919081815260200182805461082c906114cc565b80156108795780601f1061084e57610100808354040283529160200191610879565b820191906000526020600020905b81548152906001019060200180831161085c57829003601f168201915b505050505090806002015490806003018054610894906114cc565b80601f01602080910402602001604051908101604052809291908181526020018280546108c0906114cc565b801561090d5780601f106108e25761010080835404028352916020019161090d565b820191906000526020600020905b8154815290600101906020018083116108f057829003601f168201915b505050505090806004015490806005018054610928906114cc565b80601f0160208091040260200160405190810160405280929190818152602001828054610954906114cc565b80156109a15780601f10610976576101008083540402835291602001916109a1565b820191906000526020600020905b81548152906001019060200180831161098457829003601f168201915b5050505050905086565b606060008080549050905060008103610a1b57600067ffffffffffffffff8111156109d9576109d861106d565b5b604051908082528060200260200182016040528015610a1257816020015b6109ff610d2c565b8152602001906001900390816109f75790505b50915050610d27565b6000818411610a2a5783610a2c565b815b905060008167ffffffffffffffff811115610a4a57610a4961106d565b5b604051908082528060200260200182016040528015610a8357816020015b610a70610d2c565b815260200190600190039081610a685790505b50905060005b82811015610d1f576000818486610aa0919061187e565b610aaa91906118b2565b81548110610abb57610aba6118e6565b5b90600052602060002090600602016040518060c00160405290816000820160009054906101000a900473ffffffffffffffffffffffffffffffffffffffff1673ffffffffffffffffffffffffffffffffffffffff1673ffffffffffffffffffffffffffffffffffffffff168152602001600182018054610b3a906114cc565b80601f0160208091040260200160405190810160405280929190818152602001828054610b66906114cc565b8015610bb35780601f10610b8857610100808354040283529160200191610bb3565b820191906000526020600020905b815481529060010190602001808311610b9657829003601f168201915b5050505050815260200160028201548152602001600382018054610bd6906114cc565b80601f0160208091040260200160405190810160405280929190818152602001828054610c02906114cc565b8015610c4f5780601f10610c2457610100808354040283529160200191610c4f565b820191906000526020600020905b815481529060010190602001808311610c3257829003601f168201915b5050505050815260200160048201548152602001600582018054610c72906114cc565b80601f0160208091040260200160405190810160405280929190818152602001828054610c9e906114cc565b8015610ceb5780601f10610cc057610100808354040283529160200191610ceb565b820191906000526020600020905b815481529060010190602001808311610cce57829003601f168201915b505050505081525050828281518110610d0757610d066118e6565b5b60200260200101819052508080600101915050610a89565b508093505050505b919050565b6040518060c00160405280600073ffffffffffffffffffffffffffffffffffffffff16815260200160608152602001600081526020016060815260200160008152602001606081525090565b6000604051905090565b600080fd5b600080fd5b600073ffffffffffffffffffffffffffffffffffffffff82169050919050565b6000610db782610d8c565b9050919050565b610dc781610dac565b8114610dd257600080fd5b50565b600081359050610de481610dbe565b92915050565b600060208284031215610e0057610dff610d82565b5b6000610e0e84828501610dd5565b91505092915050565b600081519050919050565b600082825260208201905092915050565b6000819050602082019050919050565b610e4c81610dac565b82525050565b600081519050919050565b600082825260208201905092915050565b60005b83811015610e8c578082015181840152602081019050610e71565b60008484015250505050565b6000601f19601f8301169050919050565b6000610eb482610e52565b610ebe8185610e5d565b9350610ece818560208601610e6e565b610ed781610e98565b840191505092915050565b6000819050919050565b610ef581610ee2565b82525050565b6000819050919050565b610f0e81610efb565b82525050565b600060c083016000830151610f2c6000860182610e43565b5060208301518482036020860152610f448282610ea9565b9150506040830151610f596040860182610eec565b5060608301518482036060860152610f718282610ea9565b9150506080830151610f866080860182610f05565b5060a083015184820360a0860152610f9e8282610ea9565b9150508091505092915050565b6000610fb78383610f14565b905092915050565b6000602082019050919050565b6000610fd782610e17565b610fe18185610e22565b935083602082028501610ff385610e33565b8060005b8581101561102f57848403895281516110108582610fab565b945061101b83610fbf565b925060208a01995050600181019050610ff7565b50829750879550505050505092915050565b6000602082019050818103600083015261105b8184610fcc565b905092915050565b600080fd5b600080fd5b7f4e487b7100000000000000000000000000000000000000000000000000000000600052604160045260246000fd5b6110a582610e98565b810181811067ffffffffffffffff821117156110c4576110c361106d565b5b80604052505050565b60006110d7610d78565b90506110e3828261109c565b919050565b600067ffffffffffffffff8211156111035761110261106d565b5b61110c82610e98565b9050602081019050919050565b82818337600083830152505050565b600061113b611136846110e8565b6110cd565b90508281526020810184848401111561115757611156611068565b5b611162848285611119565b509392505050565b600082601f83011261117f5761117e611063565b5b813561118f848260208601611128565b91505092915050565b6111a181610efb565b81146111ac57600080fd5b50565b6000813590506111be81611198565b92915050565b600080600080608085870312156111de576111dd610d82565b5b600085013567ffffffffffffffff8111156111fc576111fb610d87565b5b6112088782880161116a565b945050602085013567ffffffffffffffff81111561122957611228610d87565b5b6112358782880161116a565b9350506040611246878288016111af565b925050606085013567ffffffffffffffff81111561126757611266610d87565b5b6112738782880161116a565b91505092959194509250565b61128881610ee2565b82525050565b60006020820190506112a3600083018461127f565b92915050565b60008115159050919050565b6112be816112a9565b82525050565b60006020820190506112d960008301846112b5565b92915050565b6112e881610dac565b82525050565b600060208201905061130360008301846112df565b92915050565b61131281610ee2565b811461131d57600080fd5b50565b60008135905061132f81611309565b92915050565b60006020828403121561134b5761134a610d82565b5b600061135984828501611320565b91505092915050565b600082825260208201905092915050565b600061137e82610e52565b6113888185611362565b9350611398818560208601610e6e565b6113a181610e98565b840191505092915050565b6113b581610efb565b82525050565b600060c0820190506113d060008301896112df565b81810360208301526113e28188611373565b90506113f1604083018761127f565b81810360608301526114038186611373565b905061141260808301856113ac565b81810360a08301526114248184611373565b9050979650505050505050565b7f4f6e6c79206f776e65722063616e2063616c6c20746869730000000000000000600082015250565b6000611467601883611362565b915061147282611431565b602082019050919050565b600060208201905081810360008301526114968161145a565b9050919050565b7f4e487b7100000000000000000000000000000000000000000000000000000000600052602260045260246000fd5b600060028204905060018216806114e457607f821691505b6020821081036114f7576114f661149d565b5b50919050565b7f4e6f6465206e6f7420617574686f72697a656400000000000000000000000000600082015250565b6000611533601383611362565b915061153e826114fd565b602082019050919050565b6000602082019050818103600083015261156281611526565b9050919050565b60008190508160005260206000209050919050565b60006020601f8301049050919050565b600082821b905092915050565b6000600883026115cb7fffffffffffffffffffffffffffffffffffffffffffffffffffffffffffffffff8261158e565b6115d5868361158e565b95508019841693508086168417925050509392505050565b6000819050919050565b600061161261160d61160884610ee2565b6115ed565b610ee2565b9050919050565b6000819050919050565b61162c836115f7565b61164061163882611619565b84845461159b565b825550505050565b600090565b611655611648565b611660818484611623565b505050565b5b818110156116845761167960008261164d565b600181019050611666565b5050565b601f8211156116c95761169a81611569565b6116a38461157e565b810160208510156116b2578190505b6116c66116be8561157e565b830182611665565b50505b505050565b600082821c905092915050565b60006116ec600019846008026116ce565b1980831691505092915050565b600061170583836116db565b9150826002028217905092915050565b61171e82610e52565b67ffffffffffffffff8111156117375761173661106d565b5b61174182546114cc565b61174c828285611688565b600060209050601f83116001811461177f576000841561176d578287015190505b61177785826116f9565b8655506117df565b601f19841661178d86611569565b60005b828110156117b557848901518255600182019150602085019450602081019050611790565b868310156117d257848901516117ce601f8916826116db565b8355505b6001600288020188555050505b505050505050565b600060a08201905081810360008301526118018188611373565b9050611810602083018761127f565b81810360408301526118228186611373565b905061183160608301856113ac565b81810360808301526118438184611373565b90509695505050505050565b7f4e487b7100000000000000000000000000000000000000000000000000000000600052601160045260246000fd5b600061188982610ee2565b915061189483610ee2565b92508282039050818111156118ac576118ab61184f565b5b92915050565b60006118bd82610ee2565b91506118c883610ee2565b92508282019050808211156118e0576118df61184f565b5b92915050565b7f4e487b7100000000000000000000000000000000000000000000000000000000600052603260045260246000fdfea2646970667358221220cfd82886c8e03764a909c574a60b1c2014a4d97b747b8989efc75765c319c45364736f6c634300081c0033",
  "linkReferences": {},
  "deployedLinkReferences": {}
}